{
  "contractName": "CustomToken",
  "abi": [
    {
      "inputs": [
        {
          "internalType": "string",
          "name": "name",
          "type": "string"
        },
        {
          "internalType": "string",
          "name": "symbol",
          "type": "string"
        }
      ],
      "stateMutability": "nonpayable",
      "type": "constructor"
    },
    {
      "inputs": [
        {
          "internalType": "address",
          "name": "spender",
          "type": "address"
        },
        {
          "internalType": "uint256",
          "name": "allowance",
          "type": "uint256"
        },
        {
          "internalType": "uint256",
          "name": "needed",
          "type": "uint256"
        }
      ],
      "name": "ERC20InsufficientAllowance",
      "type": "error"
    },
    {
      "inputs": [
        {
          "internalType": "address",
          "name": "sender",
          "type": "address"
        },
        {
          "internalType": "uint256",
          "name": "balance",
          "type": "uint256"
        },
        {
          "internalType": "uint256",
          "name": "needed",
          "type": "uint256"
        }
      ],
      "name": "ERC20InsufficientBalance",
      "type": "error"
    },
    {
      "inputs": [
        {
          "internalType": "address",
          "name": "approver",
          "type": "address"
        }
      ],
      "name": "ERC20InvalidApprover",
      "type": "error"
    },
    {
      "inputs": [
        {
          "internalType": "address",
          "name": "receiver",
          "type": "address"
        }
      ],
      "name": "ERC20InvalidReceiver",
      "type": "error"
    },
    {
      "inputs": [
        {
          "internalType": "address",
          "name": "sender",
          "type": "address"
        }
      ],
      "name": "ERC20InvalidSender",
      "type": "error"
    },
    {
      "inputs": [
        {
          "internalType": "address",
          "name": "spender",
          "type": "address"
        }
      ],
      "name": "ERC20InvalidSpender",
      "type": "error"
    },
    {
      "anonymous": false,
      "inputs": [
        {
          "indexed": true,
          "internalType": "address",
          "name": "owner",
          "type": "address"
        },
        {
          "indexed": true,
          "internalType": "address",
          "name": "spender",
          "type": "address"
        },
        {
          "indexed": false,
          "internalType": "uint256",
          "name": "value",
          "type": "uint256"
        }
      ],
      "name": "Approval",
      "type": "event"
    },
    {
      "anonymous": false,
      "inputs": [
        {
          "indexed": true,
          "internalType": "address",
          "name": "from",
          "type": "address"
        },
        {
          "indexed": true,
          "internalType": "address",
          "name": "to",
          "type": "address"
        },
        {
          "indexed": false,
          "internalType": "uint256",
          "name": "value",
          "type": "uint256"
        }
      ],
      "name": "Transfer",
      "type": "event"
    },
    {
      "inputs": [
        {
          "internalType": "address",
          "name": "owner",
          "type": "address"
        },
        {
          "internalType": "address",
          "name": "spender",
          "type": "address"
        }
      ],
      "name": "allowance",
      "outputs": [
        {
          "internalType": "uint256",
          "name": "",
          "type": "uint256"
        }
      ],
      "stateMutability": "view",
      "type": "function"
    },
    {
      "inputs": [
        {
          "internalType": "address",
          "name": "spender",
          "type": "address"
        },
        {
          "internalType": "uint256",
          "name": "value",
          "type": "uint256"
        }
      ],
      "name": "approve",
      "outputs": [
        {
          "internalType": "bool",
          "name": "",
          "type": "bool"
        }
      ],
      "stateMutability": "nonpayable",
      "type": "function"
    },
    {
      "inputs": [
        {
          "internalType": "address",
          "name": "account",
          "type": "address"
        }
      ],
      "name": "balanceOf",
      "outputs": [
        {
          "internalType": "uint256",
          "name": "",
          "type": "uint256"
        }
      ],
      "stateMutability": "view",
      "type": "function"
    },
    {
      "inputs": [],
      "name": "decimals",
      "outputs": [
        {
          "internalType": "uint8",
          "name": "",
          "type": "uint8"
        }
      ],
      "stateMutability": "view",
      "type": "function"
    },
    {
      "inputs": [],
      "name": "name",
      "outputs": [
        {
          "internalType": "string",
          "name": "",
          "type": "string"
        }
      ],
      "stateMutability": "view",
      "type": "function"
    },
    {
      "inputs": [],
      "name": "symbol",
      "outputs": [
        {
          "internalType": "string",
          "name": "",
          "type": "string"
        }
      ],
      "stateMutability": "view",
      "type": "function"
    },
    {
      "inputs": [],
      "name": "totalSupply",
      "outputs": [
        {
          "internalType": "uint256",
          "name": "",
          "type": "uint256"
        }
      ],
      "stateMutability": "view",
      "type": "function"
    },
    {
      "inputs": [
        {
          "internalType": "address",
          "name": "to",
          "type": "address"
        },
        {
          "internalType": "uint256",
          "name": "value",
          "type": "uint256"
        }
      ],
      "name": "transfer",
      "outputs": [
        {
          "internalType": "bool",
          "name": "",
          "type": "bool"
        }
      ],
      "stateMutability": "nonpayable",
      "type": "function"
    },
    {
      "inputs": [
        {
          "internalType": "address",
          "name": "from",
          "type": "address"
        },
        {
          "internalType": "address",
          "name": "to",
          "type": "address"
        },
        {
          "internalType": "uint256",
          "name": "value",
          "type": "uint256"
        }
      ],
      "name": "transferFrom",
      "outputs": [
        {
          "internalType": "bool",
          "name": "",
          "type": "bool"
        }
      ],
      "stateMutability": "nonpayable",
      "type": "function"
    },
    {
      "inputs": [
        {
          "internalType": "address",
          "name": "to",
          "type": "address"
        },
        {
          "internalType": "uint256",
          "name": "amount",
          "type": "uint256"
        }
      ],
      "name": "mint",
      "outputs": [],
      "stateMutability": "nonpayable",
      "type": "function"
    }
  ],
  "bytecode": "0x608060405234801562000010575f80fd5b50604051620014de380380620014de83398181016040528101906200003691906200022b565b81818160039081620000499190620004e5565b5080600490816200005b9190620004e5565b5050503360055f6101000a81548173ffffffffffffffffffffffffffffffffffffffff021916908373ffffffffffffffffffffffffffffffffffffffff1602179055505050620005c9565b5f604051905090565b5f80fd5b5f80fd5b5f80fd5b5f80fd5b5f601f19601f8301169050919050565b7f4e487b71000000000000000000000000000000000000000000000000000000005f52604160045260245ffd5b6200010782620000bf565b810181811067ffffffffffffffff82111715620001295762000128620000cf565b5b80604052505050565b5f6200013d620000a6565b90506200014b8282620000fc565b919050565b5f67ffffffffffffffff8211156200016d576200016c620000cf565b5b6200017882620000bf565b9050602081019050919050565b5f5b83811015620001a457808201518184015260208101905062000187565b5f8484015250505050565b5f620001c5620001bf8462000150565b62000132565b905082815260208101848484011115620001e457620001e3620000bb565b5b620001f184828562000185565b509392505050565b5f82601f83011262000210576200020f620000b7565b5b815162000222848260208601620001af565b91505092915050565b5f8060408385031215620002445762000243620000af565b5b5f83015167ffffffffffffffff811115620002645762000263620000b3565b5b6200027285828601620001f9565b925050602083015167ffffffffffffffff811115620002965762000295620000b3565b5b620002a485828601620001f9565b9150509250929050565b5f81519050919050565b7f4e487b71000000000000000000000000000000000000000000000000000000005f52602260045260245ffd5b5f6002820490506001821680620002fd57607f821691505b602082108103620003135762000312620002b8565b5b50919050565b5f819050815f5260205f209050919050565b5f6020601f8301049050919050565b5f82821b905092915050565b5f60088302620003777fffffffffffffffffffffffffffffffffffffffffffffffffffffffffffffffff826200033a565b6200038386836200033a565b95508019841693508086168417925050509392505050565b5f819050919050565b5f819050919050565b5f620003cd620003c7620003c1846200039b565b620003a4565b6200039b565b9050919050565b5f819050919050565b620003e883620003ad565b62000400620003f782620003d4565b84845462000346565b825550505050565b5f90565b6200041662000408565b62000423818484620003dd565b505050565b5b818110156200044a576200043e5f826200040c565b60018101905062000429565b5050565b601f8211156200049957620004638162000319565b6200046e846200032b565b810160208510156200047e578190505b620004966200048d856200032b565b83018262000428565b50505b505050565b5f82821c905092915050565b5f620004bb5f19846008026200049e565b1980831691505092915050565b5f620004d58383620004aa565b9150826002028217905092915050565b620004f082620002ae565b67ffffffffffffffff8111156200050c576200050b620000cf565b5b620005188254620002e5565b620005258282856200044e565b5f60209050601f8311600181146200055b575f841562000546578287015190505b620005528582620004c8565b865550620005c1565b601f1984166200056b8662000319565b5f5b8281101562000594578489015182556001820191506020850194506020810190506200056d565b86831015620005b45784890151620005b0601f891682620004aa565b8355505b6001600288020188555050505b505050505050565b610f0780620005d75f395ff3fe608060405234801561000f575f80fd5b506004361061009c575f3560e01c806340c10f191161006457806340c10f191461015a57806370a082311461017657806395d89b41146101a6578063a9059cbb146101c4578063dd62ed3e146101f45761009c565b806306fdde03146100a0578063095ea7b3146100be57806318160ddd146100ee57806323b872dd1461010c578063313ce5671461013c575b5f80fd5b6100a8610224565b6040516100b59190610b80565b60405180910390f35b6100d860048036038101906100d39190610c31565b6102b4565b6040516100e59190610c89565b60405180910390f35b6100f66102d6565b6040516101039190610cb1565b60405180910390f35b61012660048036038101906101219190610cca565b6102df565b6040516101339190610c89565b60405180910390f35b61014461030d565b6040516101519190610d35565b60405180910390f35b610174600480360381019061016f9190610c31565b610315565b005b610190600480360381019061018b9190610d4e565b61037b565b60405161019d9190610cb1565b60405180910390f35b6101ae6103c0565b6040516101bb9190610b80565b60405180910390f35b6101de60048036038101906101d99190610c31565b610450565b6040516101eb9190610c89565b60405180910390f35b61020e60048036038101906102099190610d79565b610472565b60405161021b9190610cb1565b60405180910390f35b60606003805461023390610de4565b80601f016020809104026020016040519081016040528092919081815260200182805461025f90610de4565b80156102aa5780601f10610281576101008083540402835291602001916102aa565b820191905f5260205f20905b81548152906001019060200180831161028d57829003601f168201915b5050505050905090565b5f806102be6104f4565b90506102cb8185856104fb565b600191505092915050565b5f600254905090565b5f806102e96104f4565b90506102f685828561050d565b61030185858561059f565b60019150509392505050565b5f6012905090565b60055f9054906101000a900473ffffffffffffffffffffffffffffffffffffffff1673ffffffffffffffffffffffffffffffffffffffff163373ffffffffffffffffffffffffffffffffffffffff161461036d575f80fd5b610377828261068f565b5050565b5f805f8373ffffffffffffffffffffffffffffffffffffffff1673ffffffffffffffffffffffffffffffffffffffff1681526020019081526020015f20549050919050565b6060600480546103cf90610de4565b80601f01602080910402602001604051908101604052809291908181526020018280546103fb90610de4565b80156104465780601f1061041d57610100808354040283529160200191610446565b820191905f5260205f20905b81548152906001019060200180831161042957829003601f168201915b5050505050905090565b5f8061045a6104f4565b905061046781858561059f565b600191505092915050565b5f60015f8473ffffffffffffffffffffffffffffffffffffffff1673ffffffffffffffffffffffffffffffffffffffff1681526020019081526020015f205f8373ffffffffffffffffffffffffffffffffffffffff1673ffffffffffffffffffffffffffffffffffffffff1681526020019081526020015f2054905092915050565b5f33905090565b610508838383600161070e565b505050565b5f6105188484610472565b90507fffffffffffffffffffffffffffffffffffffffffffffffffffffffffffffffff8114610599578181101561058a578281836040517ffb8f41b200000000000000000000000000000000000000000000000000000000815260040161058193929190610e23565b60405180910390fd5b61059884848484035f61070e565b5b50505050565b5f73ffffffffffffffffffffffffffffffffffffffff168373ffffffffffffffffffffffffffffffffffffffff160361060f575f6040517f96c6fd1e0000000000000000000000000000000000000000000000000000000081526004016106069190610e58565b60405180910390fd5b5f73ffffffffffffffffffffffffffffffffffffffff168273ffffffffffffffffffffffffffffffffffffffff160361067f575f6040517fec442f050000000000000000000000000000000000000000000000000000000081526004016106769190610e58565b60405180910390fd5b61068a8383836108dd565b505050565b5f73ffffffffffffffffffffffffffffffffffffffff168273ffffffffffffffffffffffffffffffffffffffff16036106ff575f6040517fec442f050000000000000000000000000000000000000000000000000000000081526004016106f69190610e58565b60405180910390fd5b61070a5f83836108dd565b5050565b5f73ffffffffffffffffffffffffffffffffffffffff168473ffffffffffffffffffffffffffffffffffffffff160361077e575f6040517fe602df050000000000000000000000000000000000000000000000000000000081526004016107759190610e58565b60405180910390fd5b5f73ffffffffffffffffffffffffffffffffffffffff168373ffffffffffffffffffffffffffffffffffffffff16036107ee575f6040517f94280d620000000000000000000000000000000000000000000000000000000081526004016107e59190610e58565b60405180910390fd5b8160015f8673ffffffffffffffffffffffffffffffffffffffff1673ffffffffffffffffffffffffffffffffffffffff1681526020019081526020015f205f8573ffffffffffffffffffffffffffffffffffffffff1673ffffffffffffffffffffffffffffffffffffffff1681526020019081526020015f208190555080156108d7578273ffffffffffffffffffffffffffffffffffffffff168473ffffffffffffffffffffffffffffffffffffffff167f8c5be1e5ebec7d5bd14f71427d1e84f3dd0314c0f7b2291e5b200ac8c7c3b925846040516108ce9190610cb1565b60405180910390a35b50505050565b5f73ffffffffffffffffffffffffffffffffffffffff168373ffffffffffffffffffffffffffffffffffffffff160361092d578060025f8282546109219190610e9e565b925050819055506109fb565b5f805f8573ffffffffffffffffffffffffffffffffffffffff1673ffffffffffffffffffffffffffffffffffffffff1681526020019081526020015f20549050818110156109b6578381836040517fe450d38c0000000000000000000000000000000000000000000000000000000081526004016109ad93929190610e23565b60405180910390fd5b8181035f808673ffffffffffffffffffffffffffffffffffffffff1673ffffffffffffffffffffffffffffffffffffffff1681526020019081526020015f2081905550505b5f73ffffffffffffffffffffffffffffffffffffffff168273ffffffffffffffffffffffffffffffffffffffff1603610a42578060025f8282540392505081905550610a8c565b805f808473ffffffffffffffffffffffffffffffffffffffff1673ffffffffffffffffffffffffffffffffffffffff1681526020019081526020015f205f82825401925050819055505b8173ffffffffffffffffffffffffffffffffffffffff168373ffffffffffffffffffffffffffffffffffffffff167fddf252ad1be2c89b69c2b068fc378daa952ba7f163c4a11628f55a4df523b3ef83604051610ae99190610cb1565b60405180910390a3505050565b5f81519050919050565b5f82825260208201905092915050565b5f5b83811015610b2d578082015181840152602081019050610b12565b5f8484015250505050565b5f601f19601f8301169050919050565b5f610b5282610af6565b610b5c8185610b00565b9350610b6c818560208601610b10565b610b7581610b38565b840191505092915050565b5f6020820190508181035f830152610b988184610b48565b905092915050565b5f80fd5b5f73ffffffffffffffffffffffffffffffffffffffff82169050919050565b5f610bcd82610ba4565b9050919050565b610bdd81610bc3565b8114610be7575f80fd5b50565b5f81359050610bf881610bd4565b92915050565b5f819050919050565b610c1081610bfe565b8114610c1a575f80fd5b50565b5f81359050610c2b81610c07565b92915050565b5f8060408385031215610c4757610c46610ba0565b5b5f610c5485828601610bea565b9250506020610c6585828601610c1d565b9150509250929050565b5f8115159050919050565b610c8381610c6f565b82525050565b5f602082019050610c9c5f830184610c7a565b92915050565b610cab81610bfe565b82525050565b5f602082019050610cc45f830184610ca2565b92915050565b5f805f60608486031215610ce157610ce0610ba0565b5b5f610cee86828701610bea565b9350506020610cff86828701610bea565b9250506040610d1086828701610c1d565b9150509250925092565b5f60ff82169050919050565b610d2f81610d1a565b82525050565b5f602082019050610d485f830184610d26565b92915050565b5f60208284031215610d6357610d62610ba0565b5b5f610d7084828501610bea565b91505092915050565b5f8060408385031215610d8f57610d8e610ba0565b5b5f610d9c85828601610bea565b9250506020610dad85828601610bea565b9150509250929050565b7f4e487b71000000000000000000000000000000000000000000000000000000005f52602260045260245ffd5b5f6002820490506001821680610dfb57607f821691505b602082108103610e0e57610e0d610db7565b5b50919050565b610e1d81610bc3565b82525050565b5f606082019050610e365f830186610e14565b610e436020830185610ca2565b610e506040830184610ca2565b949350505050565b5f602082019050610e6b5f830184610e14565b92915050565b7f4e487b71000000000000000000000000000000000000000000000000000000005f52601160045260245ffd5b5f610ea882610bfe565b9150610eb383610bfe565b9250828201905080821115610ecb57610eca610e71565b5b9291505056fea26469706673582212204631067754c044781cd081e694ad8eff0aafc6afc5ada8de9a010014a96b906664736f6c63430008140033",
  "immutableReferences": {},
  "source": "// SPDX-License-Identifier: MIT\r\npragma solidity ^0.8.20;\r\n\r\nimport \"@openzeppelin/contracts/token/ERC20/ERC20.sol\";\r\nimport \"@openzeppelin/contracts/access/Ownable.sol\";\r\n\r\ncontract CustomToken is ERC20 {\r\n    address private _owner;\r\n    constructor (string memory name, string memory symbol) ERC20(name, symbol){_owner = msg.sender;}\r\n\r\n    function mint(address to, uint256 amount) public {\r\n        require(msg.sender == _owner);\r\n        _mint(to, amount);\r\n    }\r\n}\r\n\r\n",
  "sourcePath": "D:\\coding\\solidity\\lending-protocol\\contracts\\CustomToken.sol",
  "compiler": {
    "name": "solc",
    "version": "0.8.20+commit.a1b79de6.Emscripten.clang"
  },
  "schemaVersion": "3.4.16",
  "updatedAt": "2024-09-26T15:38:28.774Z",
  "devdoc": {
    "errors": {
      "ERC20InsufficientAllowance(address,uint256,uint256)": [
        {
          "details": "Indicates a failure with the `spender`s `allowance`. Used in transfers.",
          "params": {
            "allowance": "Amount of tokens a `spender` is allowed to operate with.",
            "needed": "Minimum amount required to perform a transfer.",
            "spender": "Address that may be allowed to operate on tokens without being their owner."
          }
        }
      ],
      "ERC20InsufficientBalance(address,uint256,uint256)": [
        {
          "details": "Indicates an error related to the current `balance` of a `sender`. Used in transfers.",
          "params": {
            "balance": "Current balance for the interacting account.",
            "needed": "Minimum amount required to perform a transfer.",
            "sender": "Address whose tokens are being transferred."
          }
        }
      ],
      "ERC20InvalidApprover(address)": [
        {
          "details": "Indicates a failure with the `approver` of a token to be approved. Used in approvals.",
          "params": {
            "approver": "Address initiating an approval operation."
          }
        }
      ],
      "ERC20InvalidReceiver(address)": [
        {
          "details": "Indicates a failure with the token `receiver`. Used in transfers.",
          "params": {
            "receiver": "Address to which tokens are being transferred."
          }
        }
      ],
      "ERC20InvalidSender(address)": [
        {
          "details": "Indicates a failure with the token `sender`. Used in transfers.",
          "params": {
            "sender": "Address whose tokens are being transferred."
          }
        }
      ],
      "ERC20InvalidSpender(address)": [
        {
          "details": "Indicates a failure with the `spender` to be approved. Used in approvals.",
          "params": {
            "spender": "Address that may be allowed to operate on tokens without being their owner."
          }
        }
      ]
    },
    "events": {
      "Approval(address,address,uint256)": {
        "details": "Emitted when the allowance of a `spender` for an `owner` is set by a call to {approve}. `value` is the new allowance."
      },
      "Transfer(address,address,uint256)": {
        "details": "Emitted when `value` tokens are moved from one account (`from`) to another (`to`). Note that `value` may be zero."
      }
    },
    "kind": "dev",
    "methods": {
      "allowance(address,address)": {
        "details": "See {IERC20-allowance}."
      },
      "approve(address,uint256)": {
        "details": "See {IERC20-approve}. NOTE: If `value` is the maximum `uint256`, the allowance is not updated on `transferFrom`. This is semantically equivalent to an infinite approval. Requirements: - `spender` cannot be the zero address."
      },
      "balanceOf(address)": {
        "details": "See {IERC20-balanceOf}."
      },
      "decimals()": {
        "details": "Returns the number of decimals used to get its user representation. For example, if `decimals` equals `2`, a balance of `505` tokens should be displayed to a user as `5.05` (`505 / 10 ** 2`). Tokens usually opt for a value of 18, imitating the relationship between Ether and Wei. This is the default value returned by this function, unless it's overridden. NOTE: This information is only used for _display_ purposes: it in no way affects any of the arithmetic of the contract, including {IERC20-balanceOf} and {IERC20-transfer}."
      },
      "name()": {
        "details": "Returns the name of the token."
      },
      "symbol()": {
        "details": "Returns the symbol of the token, usually a shorter version of the name."
      },
      "totalSupply()": {
        "details": "See {IERC20-totalSupply}."
      },
      "transfer(address,uint256)": {
        "details": "See {IERC20-transfer}. Requirements: - `to` cannot be the zero address. - the caller must have a balance of at least `value`."
      },
      "transferFrom(address,address,uint256)": {
        "details": "See {IERC20-transferFrom}. Emits an {Approval} event indicating the updated allowance. This is not required by the EIP. See the note at the beginning of {ERC20}. NOTE: Does not update the allowance if the current allowance is the maximum `uint256`. Requirements: - `from` and `to` cannot be the zero address. - `from` must have a balance of at least `value`. - the caller must have allowance for ``from``'s tokens of at least `value`."
      }
    },
    "version": 1
  },
  "userdoc": {
    "kind": "user",
    "methods": {},
    "version": 1
  }
}